:020000040800F2
:1000000000500020690E0008990D0008A10D00089D
:10001000A90D0008B10D0008B90D0008000000008E
:10002000000000000000000000000000C10D0008FA
:10003000CD0D000800000000D90D0008E50D0008F6
:10004000B10E0008B10E0008B10E0008B10E000894
:10005000B10E0008B10E0008B10E0008B10E000884
:10006000B10E0008B10E0008B10E0008B10E000874
:10007000B10E0008B10E0008B10E0008B10E000864
:10008000B10E0008B10E0008B10E0008B10E000854
:10009000B10E0008B10E0008B10E0008B10E000844
:1000A000B10E0008B10E0008B10E0008B10E000834
:1000B000B10E0008B10E0008B10E0008B10E000824
:1000C000B10E0008B10E0008B10E0008B10E000814
:1000D000B10E0008B10E0008B10E0008B10E000804
:1000E000B10E0008B10E0008B10E000800000000BB
:1000F0000000000000000000000000000000000000
:0C01000000000000000000005FF808F1A3
:10010C0010B5054C237833B9044B13B10448AFF345
:10011C0000800123237010BD680000200000000047
:10012C00882A000808B5034B1BB103490348AFF3F9
:10013C00008008BD000000006C000020882A000828
:10014C00034613F8012B002AFBD1181A013870470B
:10015C0081F0004102E000BF83F0004330B54FEA6C
:10016C0041044FEA430594EA050F08BF90EA020FD9
:10017C001FBF54EA000C55EA020C7FEA645C7FEA6C
:10018C00655C00F0E2804FEA5454D4EB5555B8BF8F
:10019C006D420CDD2C4480EA020281EA030382EA00
:1001AC00000083EA010180EA020281EA0303362D92
:1001BC0088BF30BD11F0004F4FEA01314FF4801C65
:1001CC004CEA113102D0404261EB410113F0004F77
:1001DC004FEA03334CEA133302D0524263EB43032E
:1001EC0094EA050F00F0A780A4F10104D5F1200ECC
:1001FC000DDB02FA0EFC22FA05F2801841F1000127
:10020C0003FA0EF2801843FA05F359410EE0A5F1FA
:10021C0020050EF1200E012A03FA0EFC28BF4CF02B
:10022C00020C43FA05F3C01851EBE37101F00045E1
:10023C0007D54FF0000EDCF1000C7EEB00006EEBEE
:10024C000101B1F5801F1BD3B1F5001F0CD3490878
:10025C005FEA30004FEA3C0C04F101044FEA4452CF
:10026C0012F5800F80F09A80BCF1004F08BF5FEA56
:10027C00500C50F1000041EB045141EA050130BD36
:10028C005FEA4C0C404141EB0101013C28BFB1F548
:10029C00801FE9D291F0000F04BF01460020B1FA93
:1002AC0081F308BF2033A3F10B03B3F120020CDA66
:1002BC000C3208DD02F1140CC2F10C0201FA0CF044
:1002CC0021FA02F10CE002F11402D8BFC2F1200CA9
:1002DC0001FA02F120FA0CFCDCBF41EA0C0190405F
:1002EC00E41AA2BF01EB0451294330BD6FEA0404A8
:1002FC001F3C1CDA0C340EDC04F11404C4F1200293
:10030C0020FA04F001FA02F340EA030021FA04F3A4
:10031C0045EA030130BDC4F10C04C4F1200220FAFB
:10032C0002F001FA04F340EA0300294630BD21FA39
:10033C0004F0294630BD94F0000F83F4801306BFFF
:10034C0081F480110134013D4EE77FEA645C18BFF3
:10035C007FEA655C29D094EA050F08BF90EA020F8A
:10036C0005D054EA000C04BF1946104630BD91EA82
:10037C00030F1EBF0021002030BD5FEA545C05D185
:10038C004000494128BF41F0004130BD14F58004C4
:10039C003CBF01F5801130BD01F0004545F0FE4138
:1003AC0041F470014FF0000030BD7FEA645C1ABF6D
:1003BC00194610467FEA655C1CBF0B46024650EAA4
:1003CC00013406BF52EA033591EA030F41F40021D0
:1003DC0030BD00BF90F0000F04BF0021704730B556
:1003EC004FF4806404F132044FF000054FF000012B
:1003FC0050E700BF90F0000F04BF0021704730B5EC
:10040C004FF4806404F1320410F0004548BF4042C0
:10041C004FF000013EE700BF42004FEAE2014FEA15
:10042C0031014FEA02701FBF12F07F4393F07F4FF0
:10043C0081F06051704732F07F4208BF704793F0F3
:10044C007F4F04BF41F40021704730B54FF4607406
:10045C0001F0004521F000411CE700BF50EA010209
:10046C0008BF704730B54FF000050AE050EA0102B2
:10047C0008BF704730B511F0004502D5404261EB22
:10048C0041014FF4806404F132045FEA915C3FF463
:10049C00D8AE4FF003025FEADC0C18BF03325FEA00
:1004AC00DC0C18BF033202EBDC02C2F1200300FAB1
:1004BC0003FC20FA02F001FA03FE40EA0E0021FAD6
:1004CC0002F11444BDE600BF70B54FF0FF0C4CF4C4
:1004DC00E06C1CEA11541DBF1CEA135594EA0C0F76
:1004EC0095EA0C0F00F0DEF82C4481EA030621EAB1
:1004FC004C5123EA4C5350EA013518BF52EA0335EC
:10050C0041F4801143F4801338D0A0FB02CE4FF09D
:10051C000005E1FB02E506F00042E0FB03E54FF0CD
:10052C000006E1FB03569CF0000F18BF4EF0010EC5
:10053C00A4F1FF04B6F5007F64F5407404D25FEAC1
:10054C004E0E6D4146EB060642EAC62141EA555174
:10055C004FEAC52040EA5E504FEACE2EB4F1FD0CB6
:10056C0088BFBCF5E06F1ED8BEF1004F08BF5FEA34
:10057C00500E50F1000041EB045170BD06F00046E6
:10058C0046EA010140EA020081EA0301B4EB5C0493
:10059C00C2BFD4EB0C0541EA045170BD41F480118B
:1005AC004FF0000E013C00F3AB8014F1360FDEBFB0
:1005BC00002001F0004170BDC4F10004203C35DA8C
:1005CC000C341BDC04F11404C4F1200500FA05F30F
:1005DC0020FA04F001FA05F240EA020001F00042B0
:1005EC0021F0004110EBD37021FA04F642EB060126
:1005FC005EEA430E08BF20EAD37070BDC4F10C0450
:10060C00C4F1200500FA04F320FA05F001FA04F213
:10061C0040EA020001F0004110EBD37041F10001FF
:10062C005EEA430E08BF20EAD37070BDC4F120050A
:10063C0000FA05F24EEA020E20FA04F301FA05F272
:10064C0043EA020321FA04F001F0004121FA04F21A
:10065C0020EA020000EBD3705EEA430E08BF20EAEA
:10066C00D37070BD94F0000F0FD101F00046400024
:10067C0041EB010111F4801F08BF013CF7D041EAA6
:10068C00060195F0000F18BF704703F000465200AA
:10069C0043EB030313F4801F08BF013DF7D043EA7B
:1006AC000603704794EA0C0F0CEA135518BF95EA31
:1006BC000C0F0CD050EA410618BF52EA4306D1D1B8
:1006CC0081EA030101F000414FF0000070BD50EAD7
:1006DC00410606BF1046194652EA430619D094EA61
:1006EC000C0F02D150EA013613D195EA0C0F05D14B
:1006FC0052EA03361CBF104619460AD181EA03019F
:10070C0001F0004141F0FE4141F470014FF0000056
:10071C0070BD41F0FE4141F4780170BD70B54FF0F1
:10072C00FF0C4CF4E06C1CEA11541DBF1CEA135571
:10073C0094EA0C0F95EA0C0F00F0A7F8A4EB050453
:10074C0081EA030E52EA03354FEA013100F088804A
:10075C004FEA03334FF0805545EA131343EA126313
:10076C004FEA022245EA111545EA10654FEA0026C8
:10077C000EF000419D4208BF964244F1FD0404F581
:10078C00407402D25B084FEA3202B61A65EB0305DD
:10079C005B084FEA32024FF480104FF4002CB6EB9A
:1007AC00020E75EB030E22BFB61A754640EA0C001A
:1007BC005B084FEA3202B6EB020E75EB030E22BF5A
:1007CC00B61A754640EA5C005B084FEA3202B6EB9B
:1007DC00020E75EB030E22BFB61A754640EA9C005A
:1007EC005B084FEA3202B6EB020E75EB030E22BF2A
:1007FC00B61A754640EADC0055EA060E18D04FEAE8
:10080C00051545EA16754FEA06164FEAC30343EA87
:10081C0052734FEAC2025FEA1C1CC0D111F4801F54
:10082C000BD141EA00014FF000004FF0004CB6E74D
:10083C0011F4801F04BF01430020B4F1FD0C88BFEC
:10084C00BCF5E06F3FF6AFAEB5EB030C04BFB6EBF7
:10085C00020C5FEA500C50F1000041EB045170BDEA
:10086C000EF0004E4EEA113114EB5C04C2BFD4EB17
:10087C000C0541EA045170BD41F480114FF0000E9B
:10088C00013C90E645EA060E8DE60CEA135594EA17
:10089C000C0F08BF95EA0C0F3FF43BAF94EA0C0F1A
:1008AC000AD150EA01347FF434AF95EA0C0F7FF48F
:1008BC0025AF104619462CE795EA0C0F06D152EAE3
:1008CC0003353FF4FDAE1046194622E750EA4106C7
:1008DC0018BF52EA43067FF4C5AE50EA41047FF4D8
:1008EC000DAF52EA43057FF4EBAE12E780B400AFD4
:1008FC00044B1B68034A43F00103136000BFBD4661
:10090C0080BC70470010024080B400AF064B1B68DF
:10091C0003F00203022B0CBF01230023DBB21846A9
:10092C00BD4680BC704700BF0010024080B483B04D
:10093C0000AF7860064B1B6823F0F8027B68DB0085
:10094C00034913430B6000BF0C37BD4680BC704796
:10095C000010024080B483B000AF7860064B5B6837
:10096C0023F0030204497B6813434B6000BF0C3730
:10097C00BD4680BC704700BF0010024080B400AF81
:10098C00034B5B6803F00C031846BD4680BC7047F4
:10099C000010024080B483B000AF7860064B5B68F7
:1009AC0023F0F00204497B6813434B6000BF0C3703
:1009BC00BD4680BC704700BF0010024080B483B0BD
:1009CC0000AF7860064B5B6823F4E06204497B68F7
:1009DC0013434B6000BF0C37BD4680BC704700BF53
:1009EC000010024080B483B000AF7860064B5B68A7
:1009FC0023F4605204497B6813434B6000BF0C37EF
:100A0C00BD4680BC704700BF0010024080B400AFF0
:100A1C00044B1B68034A43F08073136000BFBD4650
:100A2C0080BC70470010024080B400AF064B1B68BE
:100A3C0003F00073B3F1007F0CBF01230023DBB282
:100A4C001846BD4680BC70470010024080B483B08D
:100A5C0000AF78603960084B5B6823F47C127B68CC
:100A6C0003F440313B680B43034913434B6000BF15
:100A7C000C37BD4680BC70470010024080B485B076
:100A8C0000AF7860084B9A6907497B6813438B6108
:100A9C00054B9A697B681340FB60FB6800BF1437F9
:100AAC00BD4680BC704700BF0010024080B483B0CC
:100ABC0000AF7860064B1B6823F0070204497B6883
:100ACC0013430B6000BF0C37BD4680BC704700BFA2
:100ADC000020024080B400AF034B1B6803F00703F7
:100AEC001846BD4680BC70470020024080B483B0DD
:100AFC0000AF786039603B681B0A9AB27B685A6118
:100B0C0000BF0C37BD4680BC7047000080B500AFFD
:100B1C0000F0CAF900F018F800F08AF800F05AF862
:100B2C0001F0DCF80E2001F06FF801F0F0F801F0A4
:100B3C0097F903461A46034B1A7001F0D7FA00BF17
:100B4C00F5E700BFD800002080B500AF0120FFF70B
:100B5C00ADFF00BFFFF7BEFF0346012BFAD11020FB
:100B6C00FFF7E4FEFFF7C2FE00BFFFF7CDFE034622
:100B7C00012BFAD14FF420110020FFF767FFFFF78C
:100B8C0045FF00BFFFF750FF0346012BFAD10020B1
:100B9C00FFF700FF4FF48060FFF710FF0020FFF716
:100BAC0021FF0220FFF7D6FE00BFFFF7E7FE03464A
:100BBC00082BFAD1064800F0DBFE0F2000F08AF972
:100BCC000346002B01D000F06BF800BF80BD00BFC6
:100BDC00006CDC0280B500AF124B134A1A60114B4B
:100BEC00124A5A600F4B00229A600E4B0022DA60B8
:100BFC000C4B4FF480421A610A4B00225A61094B8C
:100C0C0000229A61074B0022DA61064B00221A621D
:100C1C00044800F009FC0346002B01D000F040F81A
:100C2C0000BF80BD8400002000540040A08601005D
:100C3C0080B586B000AF3B1D00221A605A609A60E6
:100C4C00DA601A612020FFF719FF0820FFF716FF62
:100C5C000420FFF713FF43F638010F48FFF746FF58
:100C6C000E4B7B600423BB603B1D19460A4800F009
:100C7C00F5FD43F638037B600123BB600223FB6068
:100C8C0000233B613B1D1946034800F0E7FD00BF04
:100C9C001837BD4680BD00BF000C0140F000F004C9
:100CAC0080B400AF72B600BF00BFFDE780B485B062
:100CBC0000AF154B9B69144A43F001039361124B2F
:100CCC009B6903F00103BB60BB680F4BDB690E4AE9
:100CDC0043F08053D3610C4BDB6903F080537B6092
:100CEC007B680A4B5B68FB60FB6823F0E063FB608E
:100CFC00FB6843F00073FB60044AFB68536000BF61
:100D0C001437BD4680BC7047001002400000014003
:100D1C0080B588B000AF786007F1100300221A602C
:100D2C005A609A60DA607B681B68154A934223D13B
:100D3C00144B9B69134A43F008039361114B9B6955
:100D4C0003F00803FB60FB68C0233B6112237B614B
:100D5C000323FB6107F1100319460B4800F0E0F97F
:100D6C00084BDB69074A43F40013D361054BDB697D
:100D7C0003F40013BB60BB6800BF2037BD4680BDC9
:100D8C000054004000100240000C014080B400AF41
:100D9C0000BFFDE780B400AF00BFFDE780B400AF3B
:100DAC0000BFFDE780B400AF00BFFDE780B400AF2B
:100DBC0000BFFDE780B400AF00BFBD4680BC7047EC
:100DCC0080B400AF00BFBD4680BC704780B400AF9C
:100DDC0000BFBD4680BC704780B500AF00F0AAF8DC
:100DEC0000BF80BD80B586B000AF7860144A154B4B
:100DFC00D31A7B617B693B61134B1B68002B02D1BF
:100E0C00114B124A1A60104B1A687B6813443A69EA
:100E1C009A4207D201F0AAF903460C221A604FF04D
:100E2C00FF3309E0084B1B68FB60074B1A687B68B3
:100E3C001344054A1360FB6818461837BD4680BD3D
:100E4C000050002000040000DC00002060050020A1
:100E5C0080B400AF00BFBD4680BC7047FFF7F8FF01
:100E6C000B480C490C4A002302E0D458C4500433FC
:100E7C00C4188C42F9D3094A094C002301E01360D1
:100E8C000432A242FBD301F077F9FFF73FFE704723
:100E9C000000002068000020142B000868000020CF
:100EAC0060050020FEE7000080B500AF084B1B6812
:100EBC00074A43F010031360032000F0FDF80F20E5
:100ECC0000F008F8FFF7F2FE0023184680BD00BFC3
:100EDC000020024080B582B000AF7860124B1A68D7
:100EEC00124B1B7819464FF47A73B3FBF1F3B2FB38
:100EFC00F3F3184600F007F90346002B01D0012349
:100F0C000EE07B680F2B0AD8002279684FF0FF3077
:100F1C0000F0DDF8064A7B681360002300E0012333
:100F2C0018460837BD4680BD000000200800002090
:100F3C000400002080B400AF054B1B781A46054B0B
:100F4C001B681344034A136000BFBD4680BC704746
:100F5C0008000020E000002080B485B000AF78606D
:100F6C007B6803F00703FB600C4BDB68BB60BA6863
:100F7C004FF6FF031340BB60FB681A02BB681343B8
:100F8C0043F0BF6343F40033BB60044ABB68D360D7
:100F9C0000BF1437BD4680BC704700BF00ED00E0B9
:100FAC0080B400AF044BDB681B0A03F00703184640
:100FBC00BD4680BC704700BF00ED00E080B483B03C
:100FCC0000AF03463960FB7197F90730002B0ADB41
:100FDC003B68DAB20C4997F907301201D2B20B44D4
:100FEC0083F800230AE03B68DAB20849FB7903F086
:100FFC000F03043B1201D2B20B441A7600BF0C371C
:10100C00BD4680BC704700BF00E100E000ED00E091
:10101C0080B489B000AFF860B9607A60FB6803F007
:10102C000703FB61FB69C3F10703042B28BF0423EF
:10103C00BB61FB690433062B02D9FB69033B00E05F
:10104C0000237B614FF0FF32BB6902FA03F3DA43F2
:10105C00BB681A407B699A404FF0FF317B6901FAFB
:10106C0003F3D9437B680B40134318462437BD4622
:10107C0080BC704780B582B000AF78607B68013B64
:10108C00B3F1807F01D301230FE00A4A7B68013B57
:10109C0053600F214FF0FF30FFF790FF054B0022FC
:1010AC009A60044B07221A60002318460837BD4685
:1010BC0080BD00BF10E000E080B582B000AF78606A
:1010CC007868FFF749FF00BF0837BD4680BD80B583
:1010DC0086B000AF0346B9607A60FB7300237B6176
:1010EC00FFF75EFF78617A68B9687869FFF790FF5F
:1010FC00024697F90F3011461846FFF75FFF00BF05
:10110C001837BD4680BD80B582B000AF7860786876
:10111C00FFF7B0FF034618460837BD4680BD0000F8
:10112C0080B48BB000AF7860396000237B62002301
:10113C003B6269E101227B6A02FA03F3FB613B68C3
:10114C001B68FA691340BB61BA69FB699A4240F0AB
:10115C0058813B685B689A4A93425ED0984A9342A6
:10116C0075D8984A934258D0964A93426FD8964A6B
:10117C00934252D0944A934269D8944A93424CD0A9
:10118C00924A934263D8924A934246D0904A9342F1
:10119C005DD8122B2AD8122B59D801A252F823F061
:1011AC00271200080112000813120008551200083B
:1011BC005B1200085B1200085B1200085B1200084F
:1011CC005B1200085B1200085B1200085B1200083F
:1011DC005B1200085B1200085B1200085B1200082F
:1011EC005B120008091200081D120008794A93428C
:1011FC0013D02CE03B68DB683B6229E03B68DB6882
:10120C0004333B6224E03B68DB6808333B621FE03D
:10121C003B68DB680C333B621AE03B689B68002B35
:10122C0002D104233B6213E03B689B68012B05D180
:10123C0008233B627B68FA691A6109E008233B6268
:10124C007B68FA695A6103E000233B6200E000BF4F
:10125C00BB69FF2B01D87B6801E07B6804337B61A1
:10126C00BB69FF2B02D87B6A9B0002E07B6A083BC0
:10127C009B003B617B691A680F213B6901FA03F300
:10128C00DB431A40396A3B6901FA03F31A437B6961
:10129C001A603B685B6803F08053002B00F0B18050
:1012AC004D4B9B694C4A43F0010393614A4B9B693C
:1012BC0003F00103BB60BB68484A7B6A9B0802339E
:1012CC0052F82330FB607B6A03F003039B000F2270
:1012DC0002FA03F3DB43FA681340FB607B68404A75
:1012EC00934213D07B683F4A93420DD07B683E4AB1
:1012FC00934207D07B683D4A934201D1032306E019
:10130C00042304E0022302E0012300E000237A6AB4
:10131C0002F0030292009340FA681343FB602F49DA
:10132C007B6A9B080233FA6841F823203B685B68B0
:10133C0003F48013002B06D02D4B9A682C49BB6903
:10134C0013438B6006E02A4B9A68BB69DB43284940
:10135C0013408B603B685B6803F40013002B06D0D2
:10136C00234BDA682249BB691343CB6006E0204B60
:10137C00DA68BB69DB431E491340CB603B685B6892
:10138C0003F40033002B06D0194B5A681849BB697B
:10139C0013434B6006E0164B5A68BB69DB43144998
:1013AC0013404B603B685B6803F48033002B21D007
:1013BC000F4B1A680E49BB6913430B6021E000BF49
:1013CC00000032100000311000002210000021102B
:1013DC00000012100000111000100240000001402B
:1013EC0000080140000C01400010014000140140B5
:1013FC00000401400B4B1A68BB69DB4309491340DD
:10140C000B607B6A01337B623B681A687B6A22FA49
:10141C0003F3002B7FF48EAE00BF00BF2C37BD460C
:10142C0080BC70470004014080B584B000AF786088
:10143C007B68002B01D101232BE17B6893F83D30B5
:10144C00DBB2002B06D17B68002283F83C20786845
:10145C00FFF75EFC7B68242283F83D207B681B68C9
:10146C001A687B681B6822F001021A607B681B6893
:10147C001A687B681B6842F400421A607B681B6820
:10148C001A687B681B6822F400421A6000F01AF993
:10149C00F8607B685B68814A934207D8FB68804A96
:1014AC00934294BF01230023DBB206E0FB687D4A24
:1014BC00934294BF01230023DBB2002B01D0012304
:1014CC00E7E0FB68784AA2FB03239B0CBB607B68BC
:1014DC001B685B6823F03F017B681B68BA680A4392
:1014EC005A607B681B681B6A23F03F017B685B6852
:1014FC006A4A934202D8BB68013309E0BB684FF4D7
:10150C00967202FB03F3694AA2FB03239B09013386
:10151C007A6812680B4313627B681B68DB6923F4DF
:10152C004F4222F0FF027B685B685C498B4219D802
:10153C00FB68591E7B685B685B00B1FBF3F3591CBD
:10154C0040F6FC730B40002B0AD0FB68591E7B68DD
:10155C005B685B00B1FBF3F30133C3F30B0351E0A6
:10156C0004234FE07B689B68002B11D1FB68581E4D
:10157C007B6859680B465B000B44B0FBF3F30133FB
:10158C00C3F30B03002B0CBF01230023DBB212E0CF
:10159C00FB68581E7B6859680B469B000B449900EE
:1015AC000B44B0FBF3F30133C3F30B03002B0CBF61
:1015BC0001230023DBB2002B01D0012322E07B6846
:1015CC009B68002B0ED1FB68581E7B6859680B4634
:1015DC005B000B44B0FBF3F30133C3F30B0343F495
:1015EC0000430FE0FB68581E7B6859680B469B0054
:1015FC000B4499000B44B0FBF3F30133C3F30B031F
:10160C0043F44043796809681343CB617B681B68DA
:10161C001B6823F0C0017B68DA697B681B6A1A437C
:10162C007B681B680A431A607B681B689B6823F401
:10163C00034323F0FF037A6811697A68D268114377
:10164C007A6812680B4393607B681B68DB6823F035
:10165C00FF017B685A697B689B691A437B681B682E
:10166C000A43DA607B681B681A687B681B6842F067
:10167C0001021A607B6800221A647B68202283F8BE
:10168C003D207B6800221A637B68002283F83E2091
:10169C00002318461037BD4680BD00BFA086010050
:1016AC007F841E00FF083D0083DE1B43D34D621078
:1016BC0080B400AF024B1B681846BD4680BC704717
:1016CC000000002080B500AFFFF7F2FF0246054B8B
:1016DC005B681B0A03F007030349CB5C22FA03F394
:1016EC00184680BD00100240A82A000890B488B0AB
:1016FC0000AFF860B9607A60FB681A46BB681B0ED5
:10170C0013441C462268BB687B617B6993FAA3F384
:10171C003B613B69B3FA83F3DBB29B000F2101FA07
:10172C0003F3DB431A40BB68FB61FB6993FAA3F339
:10173C00BB61BB69B3FA83F3DBB29B00796801FA36
:10174C0003F31343236000BF2037BD4690BC7047A2
:10175C0090B488B000AFF860B9607A60FB681A4644
:10176C00BB681B0E13441C462268BB687B617B69FB
:10177C0093FAA3F33B613B69B3FA83F3DBB29B00AF
:10178C00032101FA03F3DB431A40BB68FB61FB69DD
:10179C0093FAA3F3BB61BB69B3FA83F3DBB29B008F
:1017AC00796801FA03F31343236000BF2037BD4669
:1017BC0090BC704790B488B000AFF860B9607A60A4
:1017CC00FB681A46BB681B0E13441C462268BB6898
:1017DC007B617B6993FAA3F33B613B69B3FA83F3B7
:1017EC00DBB29B00042101FA03F3DB431A40BB6814
:1017FC00FB61FB6993FAA3F3BB61BB69B3FA83F397
:10180C00DBB29B00796801FA03F31343236000BF3A
:10181C002037BD4690BC704780B487B000AFF860ED
:10182C00B9607A60FB68DA68BB681B0ADB431A4054
:10183C00BB681B0A7B617B6993FAA3F33B613B6931
:10184C00B3FA83F3DBB219467B688B401A43FB680F
:10185C00DA6000BF1C37BD4680BC704780B588B0CD
:10186C0000AF786039603B681B681B021B0C7B6106
:10187C007B693B613B6993FAA3F3FB60FB68B3FAAA
:10188C0083F3DBB2FB6144E00122FB699A407B6984
:10189C001340002B3AD0FB69072B06D840F20112FB
:1018AC00FB6902FA03F3BB6108E0FB69083B4FF0EC
:1018BC00011202FA03F343F08063BB613B685B687F
:1018CC00082B06D13B681B691A46B9697868FFF783
:1018DC00A3FF3B685B681A46B9697868FFF706FF97
:1018EC003B685B68012B03D03B685B68092B0DD10F
:1018FC003B689B681A46B9697868FFF729FF3B6813
:10190C00DB681A46B9697868FFF754FFFB69013345
:10191C00FB617A69FB6922FA03F3002BB4D1002333
:10192C0018462037BD4680BD80B485B000AF7860C6
:10193C000E4B1B68FB60FB687B68B3F1FF3F0CD060
:10194C007B6801337B6008E0084B1B6803F4803331
:10195C00002B02D07B68013B7B607B68002BF3D1B2
:10196C0000BF00BF1437BD4680BC704710E000E0DC
:10197C0080B483B000AF7860034A7B68136000BF0B
:10198C000C37BD4680BC70470000002080B483B08B
:10199C0000AF78607B685B6903F08003802B0CBF21
:1019AC0001230023DBB218460C37BD4680BC7047C0
:1019BC0080B483B000AF78607B685B6903F004038C
:1019CC00042B0CBF01230023DBB218460C37BD4699
:1019DC0080BC704780B483B000AF78607B685B6973
:1019EC0003F00103012B0CBF01230023DBB21846CB
:1019FC000C37BD4680BC704780B483B000AF7860B4
:101A0C007B685B6903F00203022B0CBF01230023EC
:101A1C00DBB218460C37BD4680BC704780B483B02F
:101A2C0000AF78607B689B6903F00203022B0CBF4C
:101A3C0001230023DBB218460C37BD4680BC70472F
:101A4C0080B483B000AF78607B681B6843F480720D
:101A5C007B681A6000BF0C37BD4680BC704780B4F1
:101A6C0083B000AF78607B681B6843F400727B68BE
:101A7C001A6000BF0C37BD4680BC704780B483B081
:101A8C0000AF78607B681B6823F400627B681A6087
:101A9C0000BF0C37BD4680BC704780B483B000AF2C
:101AAC0078600B46FB707B681B6923F0FF02FB78A8
:101ABC001A437B681A6100BF0C37BD4680BC704767
:101ACC0080B586B000AFB9607B600346FB731346EC
:101ADC00BB7300237B610023FB7408E07B6901333B
:101AEC007B617A697B689A4201D9002386E045487C
:101AFC00FFF794FF0346002BF0D14248FFF7BEFFDF
:101B0C004048FFF79DFF08E07B6901337B617A69F0
:101B1C007B689A4201D9002370E03A48FFF75AFFDC
:101B2C000346002BF0D000237B61FB7B5B00DBB218
:101B3C0019463448FFF7B1FF08E07B6901337B613C
:101B4C007A697B689A4201D9002357E02D48FFF748
:101B5C0053FF0346002BF0D000237B61294B5B69BC
:101B6C00284B9B6943E07B6901337B617A697B6815
:101B7C009A4201D9002341E02248FFF707FF0346B0
:101B8C00002BF0D000237B61FB7CBA6813441B78DC
:101B9C0019461C48FFF781FFBB7B013BBB73FB7CE9
:101BAC000133FB741748FFF703FF0346002B18D0D3
:101BBC00BB7B002B15D0FB7CBA6813441A78114BF5
:101BCC001A61BB7B013BBB73FB7C0133FB7408E0EC
:101BDC007B6901337B617A697B689A4201D9002366
:101BEC000CE0084B5B6903F00403002BF0D0BB7BCB
:101BFC00002BC1D10348FFF732FF012318461837D9
:101C0C00BD4680BD0054004080B584B000AF034693
:101C1C00FB7197F9073023F00F035BB243F00C0311
:101C2C005BB2DBB23B7397F9073023F00F035BB267
:101C3C0043F008035BB2DBB27B73FB791B015BB235
:101C4C0043F00C035BB2DBB2BB73FB791B015BB2E1
:101C5C0043F008035BB2DBB2FB7307F10C014FF4EA
:101C6C007A7304222720FFF72BFF00BF1037BD46E5
:101C7C0080BD80B584B000AF0346FB7197F9073087
:101C8C0023F00F035BB243F00D035BB2DBB23B738B
:101C9C0097F9073023F00F035BB243F009035BB2F3
:101CAC00DBB27B73FB791B015BB243F00D035BB2C0
:101CBC00DBB2BB73FB791B015BB243F009035BB274
:101CCC00DBB2FB7307F10C014FF47A73042227206B
:101CDC00FFF7F6FE00BF1037BD4680BD80B500AFE4
:101CEC003320FFF791FF3220FFF78EFF2820FFF7FC
:101CFC008BFF0C20FFF788FF0620FFF785FF0120E4
:101D0C00FFF782FF0220FFF70FFE00BF80BD80B5FA
:101D1C0000AF0120FFF778FF00BF80BD90B585B004
:101D2C0000AF78600023FB7309E0FB7B7A681344F7
:101D3C001B781846FFF79DFFFB7B0133FB73FC7B85
:101D4C007868FEF7FDF903469C42EED300BF00BF56
:101D5C001437BD4690BD000080B584B000AF03467B
:101D6C00FB7197F9072007F108030649184600F0A4
:101D7C00DDF907F108031846FFF7D0FF00BF103755
:101D8C00BD4680BDA02A000880B483B000AF786047
:101D9C0039607B689B68DA433B681B0A13409BB233
:101DAC00002B0CBF01230023DBB218460C37BD46B9
:101DBC0080BC704780B483B000AF786039603B68FA
:101DCC001B0A9AB27B681A6100BF0C37BD4680BCF7
:101DDC00704780B483B000AF786039603B681B0AF1
:101DEC009AB27B685A6100BF0C37BD4680BC704705
:101DFC0080B582B000AF0346FB7140F6080117486E
:101E0C00FFF7E7FF41F210011448FFF7E2FF42F23F
:101E1C0020011248FFF7DDFFFB7903F00103002BD3
:101E2C0004D040F608010D48FFF7C4FFFB7903F01E
:101E3C000203002B04D041F210010848FFF7BAFF4F
:101E4C00FB7903F00403002B04D042F22001034879
:101E5C00FFF7B0FF00BF0837BD4680BD000C014046
:101E6C0080B582B000AF0023FB7167E0FB791846A8
:101E7C00FFF7BEFF0520FFF757FD34493448FFF745
:101E8C0083FF0346002B0ED10A20FFF74DFD2F498F
:101E9C002F48FFF779FF0346002B4CD1FB792D4AD5
:101EAC0012F823304EE02C492948FFF76DFF03460A
:101EBC00002B0FD10A20FFF737FD27492448FFF7E5
:101ECC0063FF0346002B36D1FB79224A9B00134457
:101EDC005B7837E021491E48FFF756FF0346002B7D
:101EEC000FD10A20FFF720FD1C491948FFF74CFFC2
:101EFC000346002B1FD1FB79164A9B0013449B7899
:101F0C0020E0FB79032B16D815491148FFF73CFF4D
:101F1C000346002B0FD10A20FFF706FD10490C4891
:101F2C00FFF732FF0346002B05D1FB79094A9B00D2
:101F3C001344DB7806E0FB790133FB71FB79072B4B
:101F4C0094D9002318460837BD4680BD8000800414
:101F5C00000C0140B02A000840004004200020047E
:101F6C0010001004B0B584B000AF0346FB71FB79D0
:101F7C00002B51D0FB790A2B4ED8FB790A2B01D1BF
:101F8C000023FB71514B1B78002B1BD1504BD3E919
:101F9C0000014FF000024F4BFEF796FA02460B463B
:101FAC0014461D46FB791846FEF724FA02460B46EA
:101FBC0020462946FEF7D2F802460B464449C1E9B1
:101FCC00002323E0444BD3E900014FF00002414BC6
:101FDC00FEF77AFA02460B463F49C1E90023FB792A
:101FEC001846FEF707FA3C4BD3E90023FEF796FBA5
:101FFC0002460B4610461946354BD3E90023FEF733
:10200C00ADF802460B463249C1E9002397F9073077
:10201C001846FFF7A1FE55E0FB792E2B06D12B4B72
:10202C0001221A702D48FFF779FE4BE0FB792B2B20
:10203C000ED0FB792D2B0BD0FB792A2B08D0FB79FA
:10204C002F2B05D0FB79282B02D0FB79292B39D1EA
:10205C001E4B00221A7020494FF00002204BC1E9A0
:10206C000023204B1B785A1CD1B21E4A1170194602
:10207C00174BD3E900231C48C9000144C1E90023D4
:10208C0013494FF000024FF00003C1E90023154B38
:10209C001B785A1CD1B2134A11701C46FB79184696
:1020AC00FEF798F902460B460F48E1000144C1E9DE
:1020BC000023FB793B7300237B7307F10C03184659
:1020CC00FFF72CFE00BF1037BD46B0BD0904002041
:1020DC00100400200000244010000020A42A000856
:1020EC000000F03F08040020E800002080B500AF9D
:1020FC000C4B1B78DAB20C4B1B78DBB29A420FD02C
:10210C00084B1B78DBB2002B05D0064B1B78DBB2DF
:10211C001846FFF727FF034B1B78DAB2024B1A70F5
:10212C0000BF80BDD8000020D90000200EB46FF095
:10213C00004100B59CB01DAB029006900791049134
:10214C000848094953F8042B0591006802A901932A
:10215C0000F08AF90022029B1A701CB05DF804EBA7
:10216C0003B07047180000200802FFFF014B1868ED
:10217C00704700BF1800002070B500260C4D0D4CA8
:10218C00641BA410A64209D100F078FC00260A4D6D
:10219C000A4C641BA410A64205D170BD55F8043B33
:1021AC0098470136EEE755F8043B98470136F2E7BD
:1021BC000C2B00080C2B00080C2B0008102B000813
:1021CC007047704738B50546002940D051F8043C9B
:1021DC000C1F002BB8BFE41800F0DEF81C4A136883
:1021EC0033B9636014602846BDE8384000F0DAB8B3
:1021FC00A34208D9206821188B4201BF19685B687B
:10220C0009182160EDE71A465B680BB1A342FAD9B5
:10221C0011685018A0420BD1206801445018834219
:10222C001160E0D118685B68084410605360DAE70D
:10223C0002D90C232B60D6E7206821188B4201BFF2
:10224C0019685B680918216063605460CBE738BD7E
:10225C005C05002070B50F4E0C463168054611B96F
:10226C0000F0AAFB30602146284600F0A5FB431C79
:10227C0003D14FF0FF34204670BDC41C24F003047E
:10228C00A042F8D0211A284600F096FB0130F2D17A
:10229C00EFE700BF580500202DE9F843CD1C25F0D1
:1022AC00030508350C2D38BF0C25002D064601DB27
:1022BC00A94204D90C2333600020BDE8F883DFF871
:1022CC00D48000F069F8D8F800301C4644BB29468D
:1022DC003046FFF7BFFF431C044658D1D8F80040E6
:1022EC002746002F43D1002C4BD02368394630466B
:1022FC0004EB030900F060FB814542D121683046B4
:10230C006D1A2946FFF7A6FF01303AD023682B44FB
:10231C002360D8F800305A6862BBC8F800700FE030
:10232C002268521B20D40B2A17D96119A3422560AD
:10233C0018BF5960636808BFC8F8001062514B6041
:10234C00304600F02FF804F10B00231D20F007009D
:10235C00C21A1CBF1B1AA350AFE76268A3420CBF82
:10236C00C8F800205A60EBE723466468AEE73C46A9
:10237C007F68B6E71A465B68A342FBD10023536023
:10238C00DEE70C233046336000F00CF894E7056070
:10239C00D6E700BF5C0500200148FFF711BF00BF66
:1023AC00540500200148FFF70CBF00BF5405002066
:1023BC002DE9F0471F468E688246BE420C46904679
:1023CC000B682DD8B1F90C2012F4906F26D06569EA
:1023DC00096905EB4505A3EB010905EBD5757B1CDC
:1023EC004B446D109D4238BF1D46530527D52946D9
:1023FC00FFF752FF064660B34A46216900F0FAFA2D
:10240C00A38923F4906343F08003A38126614E4497
:10241C0026603E466561A5EB0905A560BE4200D964
:10242C003E4632464146206800F0ACFA0020A368D4
:10243C009B1BA360236833442360BDE8F0872A46C6
:10244C0000F0E6FA06460028E0D150462169FFF775
:10245C00B9FE0C23CAF80030A3894FF0FF3043F0CB
:10246C004003A381E9E700002DE9F04F98468B89E2
:10247C0007461B060D4614469DB010D50B6973B963
:10248C004021FFF709FF2860286130B90C233B601D
:10249C004FF0FF301DB0BDE8F08F40236B6100237F
:1024AC00099320238DF8293030234FF00109CDF802
:1024BC000C80DFF898818DF82A3023469A4613F861
:1024CC00012B0AB1252AF9D1BAEB040B0BD05B46D0
:1024DC00224629463846FFF76BFF013000F0A780F3
:1024EC00099A5A4409929AF80030002B00F09F8008
:1024FC0000234FF0FF32CDE905230AF1010A0493C2
:10250C0007938DF853301A935446052214F8011B87
:10251C004E4800F061FA049AD8B9D00644BF202383
:10252C008DF85330110744BF2B238DF853309AF894
:10253C0000302A2B15D0544600204FF00A0C079A75
:10254C00214611F8013B303B092B4BD9B0B1079216
:10255C0014E0A0EB080309FA03F31343A246049317
:10256C00D2E7039B191D1B680391002BBBBF5B4279
:10257C0042F0020207930793B8BF049223782E2BE4
:10258C000AD163782A2B32D1039B02341A1D1B68A3
:10259C00039243EAE3730593DFF8B4A00322504699
:1025AC00217800F019FA38B14022049BA0EB0A0004
:1025BC00824013430134049314F8011B062225486E
:1025CC008DF8281000F008FA002836D0224B1BBBDF
:1025DC00039B073323F0070308330393099B33440E
:1025EC0009936AE70C4601200CFB0232A8E7002392
:1025FC004FF00A0C194601340593204610F8012BB4
:10260C00303A092A03D9002BC6D00591C4E70446F9
:10261C0001230CFB0121F0E703AB00932A4638465B
:10262C000E4B04A9AFF30080421C0646D6D1AB89F1
:10263C005B063FF52DAF09982CE703AB00932A46B8
:10264C003846064B04A900F07DF8EDE7D02A0008C7
:10265C00D62A0008DA2A000800000000BD23000872
:10266C002DE9F047164698468A680B69074693424F
:10267C00B8BF1346336091F843200C46DDF8209028
:10268C000AB1013333602368990642BF33680233C1
:10269C003360256815F0060506D104F1190AE368C4
:1026AC0032689B1AAB422BDC94F843302268003B17
:1026BC0018BF0123920630D44146384604F1430238
:1026CC00C847013023D02368226903F00603042B8A
:1026DC0014BF002533684FF0000608BFE56804F10D
:1026EC001A0408BFED1A54F8123C08BF25EAE57528
:1026FC009342C4BF9B1AED18B5421AD1002008E0D2
:10270C000123524641463846C847013003D14FF0A9
:10271C00FF30BDE8F0870135C1E73020E11881F8C2
:10272C0043005A1C94F845102244023382F843109B
:10273C00C2E70123224641463846C8470130E6D05D
:10274C000136D9E72DE9FF470F7E9146782F804659
:10275C000C469A460C9E01F1430207D8622F0AD808
:10276C00002F00F0D380582F00F0BA8004F14206FD
:10277C0084F842703AE0A7F16303152BF6D801A157
:10278C0051F823F0E9270008FD27000879270008F5
:10279C00792700087927000879270008FD27000809
:1027AC00792700087927000879270008792700087D
:1027BC00FF28000827280008B928000879270008F6
:1027CC007927000821290008792700082728000804
:1027DC007927000879270008C128000833681A1DDA
:1027EC001B68326004F1420684F8423001239EE0FB
:1027FC0033682068191D3160060601D51D6803E099
:10280C004506FBD5B3F90050002D03DA2D236D429C
:10281C0084F843300A23594811E0216833680806CC
:10282C0053F8045B02D4490648BFADB26F2F336036
:10283C0014BF0A2308235148002184F8431066680A
:10284C00002EA8BF2168A660A4BF21F0040121605E
:10285C000DB9002E4BD01646B5FBF3F103FB115707
:10286C00C75D06F8017D2F46BB420D46F4D9082BF7
:10287C000BD12368DF0708D5236961689942DEBF55
:10288C00302306F8013C06F1FF36921B22614B46C1
:10289C0021464046CDF800A003AAFFF7E1FE013027
:1028AC004AD14FF0FF3004B0BDE8F087236843F005
:1028BC00200323607827324884F8457023683168F8
:1028CC001F0651F8045B02D45F0648BFADB23160FD
:1028DC00D90744BF43F0200323601DB11023ABE79D
:1028EC002648E9E7236823F020032360F6E7164621
:1028FC00BDE733682568181D616930602E061B68BA
:10290C0001D5196002E06806FBD519800023164634
:10291C002361BCE7336800211A1D32601E686268AF
:10292C00304600F059F808B1801B60606368236181
:10293C00002384F84330AAE73246494640462369CF
:10294C00D0470130ADD023689B0713D4E068039BBC
:10295C009842B8BF1846A6E701233246494640467E
:10296C00D04701309DD00135E36803995B1AAB4227
:10297C00F2DCEBE7002504F11906F5E7E12A000883
:10298C00F22A0008884210B501EB020402D98442F5
:10299C00234607D8431EA14208D011F8012B03F897
:1029AC00012FF8E7014602448A4200D110BD13F80A
:1029BC00014D02F8014DF7E738B50023054D0446EB
:1029CC0008462B60FEF70EFA431C02D12B6803B1AC
:1029DC00236038BD50050020034610B5C9B202442F
:1029EC009342184601D1002003E0047801338C4255
:1029FC00F6D110BD0A44914200F1FF3300D170476B
:102A0C0010B511F8014B914203F8014FF9D110BDEB
:102A1C002DE9F041804615460C4621B91146BDE81A
:102A2C00F041FFF739BC2AB9FFF7CCFB0024204654
:102A3C00BDE8F08100F01AF88542064602D8B5EBE5
:102A4C00500FF4D829464046FFF726FC07460028CD
:102A5C00ECD0B5422A46214628BF3246FFF7CAFFC2
:102A6C0021464046FFF7AEFB3C46E0E751F8043CFC
:102A7C00181F002BBCBF0B58C0187047F8B500BF0F
:102A8C00F8BC08BC9E467047F8B500BFF8BC08BC43
:042A9C009E4670479B
:102AA000256400002E000000000000000102030465
:102AB0006C7807282064093B725E082973612B3A01
:102AC00004010A0005022E0006033D002D2A2F00F6
:102AD000232D302B2000686C4C0065666745464707
:102AE000003031323334353637383941424344458A
:102AF00046003031323334353637383961626364F9
:042B00006566000006
:082B040048D6FF7F010000002C
:042B0C00310100088B
:042B10000D010008AB
:102B140000127A0010000000010000000000000014
:102B2400000000000000F03F1C0000200000000036
:102B34001804002080040020E804002000000000A5
:102B44000000000000000000000000000000000081
:102B54000000000000000000000000000000000071
:102B64000000000000000000000000000000000061
:082B7400000000000000000059
:0400000508000E6978
:00000001FF
